{
  "contractName": "MarketPlace",
  "abi": [
    {
      "inputs": [],
      "stateMutability": "nonpayable",
      "type": "constructor"
    },
    {
      "anonymous": false,
      "inputs": [
        {
          "indexed": true,
          "internalType": "address",
          "name": "customer",
          "type": "address"
        }
      ],
      "name": "MissionComplete",
      "type": "event"
    },
    {
      "inputs": [],
      "name": "customer",
      "outputs": [
        {
          "internalType": "address",
          "name": "",
          "type": "address"
        }
      ],
      "stateMutability": "view",
      "type": "function"
    },
    {
      "inputs": [],
      "name": "owner",
      "outputs": [
        {
          "internalType": "address",
          "name": "",
          "type": "address"
        }
      ],
      "stateMutability": "view",
      "type": "function"
    },
    {
      "inputs": [],
      "name": "status",
      "outputs": [
        {
          "internalType": "enum MarketPlace.ShippingStatus",
          "name": "",
          "type": "uint8"
        }
      ],
      "stateMutability": "view",
      "type": "function"
    },
    {
      "inputs": [],
      "name": "Shipped",
      "outputs": [],
      "stateMutability": "nonpayable",
      "type": "function"
    },
    {
      "inputs": [],
      "name": "Delivered",
      "outputs": [],
      "stateMutability": "nonpayable",
      "type": "function"
    },
    {
      "inputs": [],
      "name": "getStatus",
      "outputs": [
        {
          "internalType": "enum MarketPlace.ShippingStatus",
          "name": "",
          "type": "uint8"
        }
      ],
      "stateMutability": "view",
      "type": "function"
    },
    {
      "inputs": [],
      "name": "Status",
      "outputs": [
        {
          "internalType": "enum MarketPlace.ShippingStatus",
          "name": "",
          "type": "uint8"
        }
      ],
      "stateMutability": "payable",
      "type": "function"
    }
  ],
  "bytecode": "0x608060405234801561001057600080fd5b506000600160146101000a81548160ff0219169083600281111561003757610036610081565b5b0217905550336000806101000a81548173ffffffffffffffffffffffffffffffffffffffff021916908373ffffffffffffffffffffffffffffffffffffffff1602179055506100b0565b7f4e487b7100000000000000000000000000000000000000000000000000000000600052602160045260246000fd5b610774806100bf6000396000f3fe6080604052600436106100705760003560e01c80634e69d5601161004e5780634e69d560146100e9578063779822f7146101145780637e59301e1461012b5780638da5cb5b1461014257610070565b8063200d2ed2146100755780632804b2c0146100a057806345f09ce9146100cb575b600080fd5b34801561008157600080fd5b5061008a61016d565b604051610097919061054c565b60405180910390f35b3480156100ac57600080fd5b506100b5610180565b6040516100c291906105a8565b60405180910390f35b6100d36101a6565b6040516100e0919061054c565b60405180910390f35b3480156100f557600080fd5b506100fe610296565b60405161010b919061054c565b60405180910390f35b34801561012057600080fd5b5061012961033c565b005b34801561013757600080fd5b506101406103f7565b005b34801561014e57600080fd5b506101576104b1565b60405161016491906105a8565b60405180910390f35b600160149054906101000a900460ff1681565b600160009054906101000a900473ffffffffffffffffffffffffffffffffffffffff1681565b6000600160009054906101000a900473ffffffffffffffffffffffffffffffffffffffff1673ffffffffffffffffffffffffffffffffffffffff163373ffffffffffffffffffffffffffffffffffffffff1614610238576040517f08c379a000000000000000000000000000000000000000000000000000000000815260040161022f90610620565b60405180910390fd5b6509184e72a000341015610281576040517f08c379a0000000000000000000000000000000000000000000000000000000008152600401610278906106b2565b60405180910390fd5b600160149054906101000a900460ff16905090565b60008060009054906101000a900473ffffffffffffffffffffffffffffffffffffffff1673ffffffffffffffffffffffffffffffffffffffff163373ffffffffffffffffffffffffffffffffffffffff1614610327576040517f08c379a000000000000000000000000000000000000000000000000000000000815260040161031e9061071e565b60405180910390fd5b600160149054906101000a900460ff16905090565b60008054906101000a900473ffffffffffffffffffffffffffffffffffffffff1673ffffffffffffffffffffffffffffffffffffffff163373ffffffffffffffffffffffffffffffffffffffff16146103ca576040517f08c379a00000000000000000000000000000000000000000000000000000000081526004016103c19061071e565b60405180910390fd5b6002600160146101000a81548160ff021916908360028111156103f0576103ef6104d5565b5b0217905550565b60008054906101000a900473ffffffffffffffffffffffffffffffffffffffff1673ffffffffffffffffffffffffffffffffffffffff163373ffffffffffffffffffffffffffffffffffffffff1614610485576040517f08c379a000000000000000000000000000000000000000000000000000000000815260040161047c9061071e565b60405180910390fd5b60018060146101000a81548160ff021916908360028111156104aa576104a96104d5565b5b0217905550565b60008054906101000a900473ffffffffffffffffffffffffffffffffffffffff1681565b7f4e487b7100000000000000000000000000000000000000000000000000000000600052602160045260246000fd5b60038110610515576105146104d5565b5b50565b600081905061052682610504565b919050565b600061053682610518565b9050919050565b6105468161052b565b82525050565b6000602082019050610561600083018461053d565b92915050565b600073ffffffffffffffffffffffffffffffffffffffff82169050919050565b600061059282610567565b9050919050565b6105a281610587565b82525050565b60006020820190506105bd6000830184610599565b92915050565b600082825260208201905092915050565b7f437573746f6d6572207365756c656d656e740000000000000000000000000000600082015250565b600061060a6012836105c3565b9150610615826105d4565b602082019050919050565b60006020820190508181036000830152610639816105fd565b9050919050565b7f566575696c6c657a20706179657220706f7572207574696c69736572206c612060008201527f666f6e6374696f6e000000000000000000000000000000000000000000000000602082015250565b600061069c6028836105c3565b91506106a782610640565b604082019050919050565b600060208201905081810360008301526106cb8161068f565b9050919050565b7f4f776e6572207365756c656d656e740000000000000000000000000000000000600082015250565b6000610708600f836105c3565b9150610713826106d2565b602082019050919050565b60006020820190508181036000830152610737816106fb565b905091905056fea264697066735822122044f7cf995b80eb35916e6b317876e0292b55daa2991753dee11717beed22ad4064736f6c63430008130033",
  "immutableReferences": {},
  "source": "// SPDX-License-Identifier: MIT\npragma solidity >=0.4.22 <0.9.0;\n\ncontract MarketPlace {\n    address public owner;\n    address public customer;\n\n    enum ShippingStatus {\n        Pending,\n        Shipped,\n        Delivered\n    }\n    ShippingStatus public status;\n\n    event MissionComplete(address indexed customer);\n\n    constructor() {\n        status = ShippingStatus.Pending;\n        owner = msg.sender;\n    }\n\n    function Shipped() public {\n        require(msg.sender == owner, \"Owner seulement\");\n        status = ShippingStatus.Shipped;\n    }\n\n    function Delivered() public {\n        require(msg.sender == owner, \"Owner seulement\");\n        status = ShippingStatus.Delivered;\n    }\n\n    function getStatus() public view returns (ShippingStatus) {\n        require(msg.sender == owner, \"Owner seulement\");\n        return status;\n    }\n\n    function Status() public payable returns (ShippingStatus) {\n        require(msg.sender == customer, \"Customer seulement\");\n        require(\n            msg.value >= 0.00001 ether,\n            \"Veuillez payer pour utiliser la fonction\"\n        );\n        return status;\n    }\n}\n",
  "sourcePath": "/Users/robinfournier/Desktop/YNOV/Blockchain/Marketplace/Marketplace/contracts/MarketPlace.sol",
  "compiler": {
    "name": "solc",
    "version": "0.8.19+commit.7dd6d404.Emscripten.clang"
  },
  "schemaVersion": "3.4.13",
  "updatedAt": "2023-03-09T10:47:12.786Z",
  "devdoc": {
    "kind": "dev",
    "methods": {},
    "version": 1
  },
  "userdoc": {
    "kind": "user",
    "methods": {},
    "version": 1
  }
}